{
  "contractName": "GAEventTickets",
  "abi": [
    {
      "inputs": [
        {
          "internalType": "string",
          "name": "_name",
          "type": "string"
        },
        {
          "internalType": "string",
          "name": "_symbol",
          "type": "string"
        },
        {
          "internalType": "uint256",
          "name": "_tickets",
          "type": "uint256"
        },
        {
          "internalType": "uint256",
          "name": "_primaryPrice",
          "type": "uint256"
        },
        {
          "internalType": "address",
          "name": "_creator",
          "type": "address"
        }
      ],
      "payable": false,
      "stateMutability": "nonpayable",
      "type": "constructor"
    },
    {
      "anonymous": false,
      "inputs": [
        {
          "indexed": true,
          "internalType": "address",
          "name": "owner",
          "type": "address"
        },
        {
          "indexed": true,
          "internalType": "address",
          "name": "spender",
          "type": "address"
        },
        {
          "indexed": false,
          "internalType": "uint256",
          "name": "value",
          "type": "uint256"
        }
      ],
      "name": "Approval",
      "type": "event"
    },
    {
      "anonymous": false,
      "inputs": [
        {
          "indexed": true,
          "internalType": "address",
          "name": "from",
          "type": "address"
        },
        {
          "indexed": true,
          "internalType": "address",
          "name": "to",
          "type": "address"
        },
        {
          "indexed": false,
          "internalType": "uint256",
          "name": "value",
          "type": "uint256"
        }
      ],
      "name": "Transfer",
      "type": "event"
    },
    {
      "constant": true,
      "inputs": [
        {
          "internalType": "address",
          "name": "",
          "type": "address"
        },
        {
          "internalType": "address",
          "name": "",
          "type": "address"
        }
      ],
      "name": "allowance",
      "outputs": [
        {
          "internalType": "uint256",
          "name": "",
          "type": "uint256"
        }
      ],
      "payable": false,
      "stateMutability": "view",
      "type": "function"
    },
    {
      "constant": true,
      "inputs": [
        {
          "internalType": "address",
          "name": "",
          "type": "address"
        }
      ],
      "name": "balanceOf",
      "outputs": [
        {
          "internalType": "uint256",
          "name": "",
          "type": "uint256"
        }
      ],
      "payable": false,
      "stateMutability": "view",
      "type": "function"
    },
    {
      "constant": true,
      "inputs": [],
      "name": "creator",
      "outputs": [
        {
          "internalType": "address",
          "name": "",
          "type": "address"
        }
      ],
      "payable": false,
      "stateMutability": "view",
      "type": "function"
    },
    {
      "constant": true,
      "inputs": [],
      "name": "decimals",
      "outputs": [
        {
          "internalType": "uint256",
          "name": "",
          "type": "uint256"
        }
      ],
      "payable": false,
      "stateMutability": "view",
      "type": "function"
    },
    {
      "constant": true,
      "inputs": [],
      "name": "name",
      "outputs": [
        {
          "internalType": "string",
          "name": "",
          "type": "string"
        }
      ],
      "payable": false,
      "stateMutability": "view",
      "type": "function"
    },
    {
      "constant": true,
      "inputs": [],
      "name": "primaryPrice",
      "outputs": [
        {
          "internalType": "uint256",
          "name": "",
          "type": "uint256"
        }
      ],
      "payable": false,
      "stateMutability": "view",
      "type": "function"
    },
    {
      "constant": true,
      "inputs": [],
      "name": "refunded",
      "outputs": [
        {
          "internalType": "uint256",
          "name": "",
          "type": "uint256"
        }
      ],
      "payable": false,
      "stateMutability": "view",
      "type": "function"
    },
    {
      "constant": true,
      "inputs": [],
      "name": "symbol",
      "outputs": [
        {
          "internalType": "string",
          "name": "",
          "type": "string"
        }
      ],
      "payable": false,
      "stateMutability": "view",
      "type": "function"
    },
    {
      "constant": true,
      "inputs": [],
      "name": "totalSupply",
      "outputs": [
        {
          "internalType": "uint256",
          "name": "",
          "type": "uint256"
        }
      ],
      "payable": false,
      "stateMutability": "view",
      "type": "function"
    },
    {
      "constant": false,
      "inputs": [
        {
          "internalType": "address",
          "name": "_to",
          "type": "address"
        },
        {
          "internalType": "uint256",
          "name": "_value",
          "type": "uint256"
        }
      ],
      "name": "transfer",
      "outputs": [
        {
          "internalType": "bool",
          "name": "",
          "type": "bool"
        }
      ],
      "payable": false,
      "stateMutability": "nonpayable",
      "type": "function"
    },
    {
      "constant": false,
      "inputs": [
        {
          "internalType": "address",
          "name": "_spender",
          "type": "address"
        },
        {
          "internalType": "uint256",
          "name": "_value",
          "type": "uint256"
        }
      ],
      "name": "approve",
      "outputs": [
        {
          "internalType": "bool",
          "name": "success",
          "type": "bool"
        }
      ],
      "payable": false,
      "stateMutability": "nonpayable",
      "type": "function"
    },
    {
      "constant": true,
      "inputs": [],
      "name": "contractBalance",
      "outputs": [
        {
          "internalType": "uint256",
          "name": "",
          "type": "uint256"
        }
      ],
      "payable": false,
      "stateMutability": "view",
      "type": "function"
    },
    {
      "constant": false,
      "inputs": [
        {
          "internalType": "address",
          "name": "_from",
          "type": "address"
        },
        {
          "internalType": "address",
          "name": "_to",
          "type": "address"
        },
        {
          "internalType": "uint256",
          "name": "_value",
          "type": "uint256"
        }
      ],
      "name": "transferFrom",
      "outputs": [
        {
          "internalType": "bool",
          "name": "success",
          "type": "bool"
        }
      ],
      "payable": false,
      "stateMutability": "nonpayable",
      "type": "function"
    },
    {
      "constant": false,
      "inputs": [
        {
          "internalType": "uint256",
          "name": "_qty",
          "type": "uint256"
        }
      ],
      "name": "primaryTransfer",
      "outputs": [
        {
          "internalType": "uint256",
          "name": "amountToRefund",
          "type": "uint256"
        }
      ],
      "payable": true,
      "stateMutability": "payable",
      "type": "function"
    }
  ],
  "bytecode": "0x608060405260006008553480156200001657600080fd5b506040516200137038038062001370833981810160405260a08110156200003c57600080fd5b81019080805160405193929190846401000000008211156200005d57600080fd5b838201915060208201858111156200007457600080fd5b82518660018202830111640100000000821117156200009257600080fd5b8083526020830192505050908051906020019080838360005b83811015620000c8578082015181840152602081019050620000ab565b50505050905090810190601f168015620000f65780820380516001836020036101000a031916815260200191505b50604052602001805160405193929190846401000000008211156200011a57600080fd5b838201915060208201858111156200013157600080fd5b82518660018202830111640100000000821117156200014f57600080fd5b8083526020830192505050908051906020019080838360005b838110156200018557808201518184015260208101905062000168565b50505050905090810190601f168015620001b35780820380516001836020036101000a031916815260200191505b506040526020018051906020019092919080519060200190929190805190602001909291905050508460069080519060200190620001f3929190620002d6565b5083600790805190602001906200020c929190620002d6565b50600854600a0a830260098190555081600a8190555080600b60006101000a81548173ffffffffffffffffffffffffffffffffffffffff021916908373ffffffffffffffffffffffffffffffffffffffff160217905550600954600d6000600b60009054906101000a900473ffffffffffffffffffffffffffffffffffffffff1673ffffffffffffffffffffffffffffffffffffffff1673ffffffffffffffffffffffffffffffffffffffff16815260200190815260200160002081905550505050505062000385565b828054600181600116156101000203166002900490600052602060002090601f016020900481019282601f106200031957805160ff19168380011785556200034a565b828001600101855582156200034a579182015b82811115620003495782518255916020019190600101906200032c565b5b5090506200035991906200035d565b5090565b6200038291905b808211156200037e57600081600090555060010162000364565b5090565b90565b610fdb80620003956000396000f3fe6080604052600436106100dd5760003560e01c8063362a07ae1161007f5780638b7afe2e116100595780638b7afe2e1461042257806395d89b411461044d578063a9059cbb146104dd578063dd62ed3e14610550576100dd565b8063362a07ae1461035057806370a082311461037b57806373f6f32b146103e0576100dd565b806312f53950116100bb57806312f539501461023c57806318160ddd1461026757806323b872dd14610292578063313ce56714610325576100dd565b806302d05d3f146100e257806306fdde0314610139578063095ea7b3146101c9575b600080fd5b3480156100ee57600080fd5b506100f76105d5565b604051808273ffffffffffffffffffffffffffffffffffffffff1673ffffffffffffffffffffffffffffffffffffffff16815260200191505060405180910390f35b34801561014557600080fd5b5061014e6105fb565b6040518080602001828103825283818151815260200191508051906020019080838360005b8381101561018e578082015181840152602081019050610173565b50505050905090810190601f1680156101bb5780820380516001836020036101000a031916815260200191505b509250505060405180910390f35b3480156101d557600080fd5b50610222600480360360408110156101ec57600080fd5b81019080803573ffffffffffffffffffffffffffffffffffffffff16906020019092919080359060200190929190505050610699565b604051808215151515815260200191505060405180910390f35b34801561024857600080fd5b50610251610836565b6040518082815260200191505060405180910390f35b34801561027357600080fd5b5061027c61083c565b6040518082815260200191505060405180910390f35b34801561029e57600080fd5b5061030b600480360360608110156102b557600080fd5b81019080803573ffffffffffffffffffffffffffffffffffffffff169060200190929190803573ffffffffffffffffffffffffffffffffffffffff16906020019092919080359060200190929190505050610842565b604051808215151515815260200191505060405180910390f35b34801561033157600080fd5b5061033a610a75565b6040518082815260200191505060405180910390f35b34801561035c57600080fd5b50610365610a7b565b6040518082815260200191505060405180910390f35b34801561038757600080fd5b506103ca6004803603602081101561039e57600080fd5b81019080803573ffffffffffffffffffffffffffffffffffffffff169060200190929190505050610a81565b6040518082815260200191505060405180910390f35b61040c600480360360208110156103f657600080fd5b8101908080359060200190929190505050610a99565b6040518082815260200191505060405180910390f35b34801561042e57600080fd5b50610437610cbc565b6040518082815260200191505060405180910390f35b34801561045957600080fd5b50610462610cc4565b6040518080602001828103825283818151815260200191508051906020019080838360005b838110156104a2578082015181840152602081019050610487565b50505050905090810190601f1680156104cf5780820380516001836020036101000a031916815260200191505b509250505060405180910390f35b3480156104e957600080fd5b506105366004803603604081101561050057600080fd5b81019080803573ffffffffffffffffffffffffffffffffffffffff16906020019092919080359060200190929190505050610d62565b604051808215151515815260200191505060405180910390f35b34801561055c57600080fd5b506105bf6004803603604081101561057357600080fd5b81019080803573ffffffffffffffffffffffffffffffffffffffff169060200190929190803573ffffffffffffffffffffffffffffffffffffffff169060200190929190505050610e75565b6040518082815260200191505060405180910390f35b600b60009054906101000a900473ffffffffffffffffffffffffffffffffffffffff1681565b60068054600181600116156101000203166002900480601f0160208091040260200160405190810160405280929190818152602001828054600181600116156101000203166002900480156106915780601f1061066657610100808354040283529160200191610691565b820191906000526020600020905b81548152906001019060200180831161067457829003601f168201915b505050505081565b60008073ffffffffffffffffffffffffffffffffffffffff168373ffffffffffffffffffffffffffffffffffffffff16141561073d576040517f08c379a000000000000000000000000000000000000000000000000000000000815260040180806020018281038252600b8152602001807f626164206164647265737300000000000000000000000000000000000000000081525060200191505060405180910390fd5b81600e60003373ffffffffffffffffffffffffffffffffffffffff1673ffffffffffffffffffffffffffffffffffffffff16815260200190815260200160002060008573ffffffffffffffffffffffffffffffffffffffff1673ffffffffffffffffffffffffffffffffffffffff168152602001908152602001600020600082825401925050819055508273ffffffffffffffffffffffffffffffffffffffff163373ffffffffffffffffffffffffffffffffffffffff167f8c5be1e5ebec7d5bd14f71427d1e84f3dd0314c0f7b2291e5b200ac8c7c3b925846040518082815260200191505060405180910390a36001905092915050565b600c5481565b60095481565b600081600e60008673ffffffffffffffffffffffffffffffffffffffff1673ffffffffffffffffffffffffffffffffffffffff16815260200190815260200160002060003373ffffffffffffffffffffffffffffffffffffffff1673ffffffffffffffffffffffffffffffffffffffff16815260200190815260200160002054101580156108d05750600082115b6108d957600080fd5b81600d60008673ffffffffffffffffffffffffffffffffffffffff1673ffffffffffffffffffffffffffffffffffffffff16815260200190815260200160002054101580156109285750600082115b61093157600080fd5b600073ffffffffffffffffffffffffffffffffffffffff168373ffffffffffffffffffffffffffffffffffffffff1614156109d4576040517f08c379a000000000000000000000000000000000000000000000000000000000815260040180806020018281038252600b8152602001807f626164206164647265737300000000000000000000000000000000000000000081525060200191505060405180910390fd5b81600e60008673ffffffffffffffffffffffffffffffffffffffff1673ffffffffffffffffffffffffffffffffffffffff16815260200190815260200160002060003373ffffffffffffffffffffffffffffffffffffffff1673ffffffffffffffffffffffffffffffffffffffff16815260200190815260200160002060008282540392505081905550610a69848484610e9a565b50600190509392505050565b60085481565b600a5481565b600d6020528060005260406000206000915090505481565b6000600a548202341015610aac57600080fd5b81600d6000600b60009054906101000a900473ffffffffffffffffffffffffffffffffffffffff1673ffffffffffffffffffffffffffffffffffffffff1673ffffffffffffffffffffffffffffffffffffffff168152602001908152602001600020541015610b1a57600080fd5b81600d6000600b60009054906101000a900473ffffffffffffffffffffffffffffffffffffffff1673ffffffffffffffffffffffffffffffffffffffff1673ffffffffffffffffffffffffffffffffffffffff1681526020019081526020016000206000828254039250508190555081600d60003373ffffffffffffffffffffffffffffffffffffffff1673ffffffffffffffffffffffffffffffffffffffff168152602001908152602001600020600082825401925050819055503373ffffffffffffffffffffffffffffffffffffffff16600b60009054906101000a900473ffffffffffffffffffffffffffffffffffffffff1673ffffffffffffffffffffffffffffffffffffffff167fddf252ad1be2c89b69c2b068fc378daa952ba7f163c4a11628f55a4df523b3ef846040518082815260200191505060405180910390a381600a5402340390503373ffffffffffffffffffffffffffffffffffffffff166108fc829081150290604051600060405180830381858888f19350505050158015610cac573d6000803e3d6000fd5b5080600c81905550809050919050565b600047905090565b60078054600181600116156101000203166002900480601f016020809104026020016040519081016040528092919081815260200182805460018160011615610100020316600290048015610d5a5780601f10610d2f57610100808354040283529160200191610d5a565b820191906000526020600020905b815481529060010190602001808311610d3d57829003601f168201915b505050505081565b600081600d60003373ffffffffffffffffffffffffffffffffffffffff1673ffffffffffffffffffffffffffffffffffffffff1681526020019081526020016000205410158015610db35750600082115b610dbc57600080fd5b600073ffffffffffffffffffffffffffffffffffffffff168373ffffffffffffffffffffffffffffffffffffffff161415610e5f576040517f08c379a000000000000000000000000000000000000000000000000000000000815260040180806020018281038252600b8152602001807f626164206164647265737300000000000000000000000000000000000000000081525060200191505060405180910390fd5b610e6a338484610e9a565b506001905092915050565b600e602052816000526040600020602052806000526040600020600091509150505481565b600081600d60008673ffffffffffffffffffffffffffffffffffffffff1673ffffffffffffffffffffffffffffffffffffffff1681526020019081526020016000206000828254039250508190555081600d60008573ffffffffffffffffffffffffffffffffffffffff1673ffffffffffffffffffffffffffffffffffffffff168152602001908152602001600020600082825401925050819055508273ffffffffffffffffffffffffffffffffffffffff168473ffffffffffffffffffffffffffffffffffffffff167fddf252ad1be2c89b69c2b068fc378daa952ba7f163c4a11628f55a4df523b3ef846040518082815260200191505060405180910390a360019050939250505056fea265627a7a723158207e3085db9f4a711f273e818db521ee0cb6a7a3616596a48fbdf4a81ed793ff6164736f6c63430005100032",
  "source": "// SPDX-License-Identifier: MIT\r\npragma solidity >=0.4.22 <0.9.0;\r\n//import \"openzeppelin-solidity/contracts/math/SafeMath.sol\";\r\n\r\n// ----------------------------------------------------------------------------\r\n// ERC Token Standard #20 Interface\r\n// https://github.com/ethereum/EIPs/blob/master/EIPS/eip-20.md\r\n// ----------------------------------------------------------------------------\r\n\r\ncontract ERC20Interface {\r\n    // Public state variables that automatic receive a getter() function\r\n    // OPTIONAL: function name() public view returns (string memory name);\r\n    string public name;\r\n\r\n    // OPTIONAL: function symbol() public view returns (string memory symbol);\r\n    string public symbol;\r\n\r\n    // OPTIONAL: function decimals() public view returns (uint8 decimals);\r\n    uint256 public decimals;\r\n\r\n    // function totalSupply() public view returns (uint256 totalSupply);\r\n    uint256 public totalSupply;\r\n\r\n    // function balanceOf(address _owner) public view returns (uint256 balanceOf);\r\n    mapping(address => uint256) public balanceOf;\r\n\r\n    // function allowance(address _owner, address _spender) public view returns (uint256 allowance);\r\n    mapping(address => mapping(address => uint256)) public allowance;\r\n\r\n    // Functions\r\n    function transfer(address _to, uint256 _value)\r\n        public\r\n        returns (bool success);\r\n\r\n    function transferFrom(\r\n        address _from,\r\n        address _to,\r\n        uint256 _value\r\n    ) public returns (bool success);\r\n\r\n    function approve(address _spender, uint256 _value)\r\n        public\r\n        returns (bool success);\r\n\r\n    // Events\r\n    event Transfer(address indexed _from, address indexed _to, uint256 _value);\r\n    event Approval(\r\n        address indexed _owner,\r\n        address indexed _spender,\r\n        uint256 _value\r\n    );\r\n}\r\n\r\ncontract EventTicketingFactory {\r\n    address public manager;\r\n    address[] public deployedGAEvents;\r\n    mapping(address => Details) public details;\r\n\r\n    struct Details {\r\n        string name;\r\n        string symbol;\r\n        uint256 totalSupply;\r\n        uint256 primaryPrice;\r\n        address creator;\r\n    }\r\n\r\n    constructor() public {\r\n        manager = msg.sender;\r\n    }\r\n    \r\n    function createGATickets(string memory _name, string memory _symbol, uint256 _tickets, uint256 _primaryPrice) public returns(address) {\r\n        address newGAEvent = address(new GAEventTickets(_name, _symbol, _tickets, _primaryPrice, msg.sender));\r\n        deployedGAEvents.push(newGAEvent);\r\n        details[newGAEvent] = Details({\r\n            name: _name,\r\n            symbol: _symbol,\r\n            totalSupply: _tickets,\r\n            primaryPrice: _primaryPrice,\r\n            creator: msg.sender\r\n        });\r\n        return newGAEvent;\r\n    }\r\n    \r\n    function getDeployedGAEventTickets() public view returns(address[] memory) {\r\n        return deployedGAEvents;\r\n    }\r\n}\r\n\r\n// Code from DAPP University\r\n// @title A title that should describe the contract/interface\r\n/// @author The name of the author\r\n/// @notice Explain to an end user what this does\r\n/// @dev Explain to a developer any extra details\r\ncontract GAEventTickets is ERC20Interface {\r\n    //using SafeMath for uint256;\r\n\r\n    string public name;\r\n    string public symbol;\r\n    uint256 public decimals = 0; // since these are not tokens make decimals \"0\"\r\n    uint256 public totalSupply;\r\n    uint256 public primaryPrice; // NOT part of ERC20Interface/Standard\r\n    address public creator; // NOT part of ERC20Interface/Standard\r\n    uint public refunded;\r\n\r\n    // keeps track of each address' ticket balance\r\n    mapping(address => uint256) public balanceOf;\r\n\r\n    // keeps track of amount of an address' tokens that can be transferred by another addresses\r\n    // first \"address\" is the address that provides the allowance and has the tokens\r\n    // second \"address\" is the address that is allowed to transfer the allowance using \"approve()\"\r\n    // transfer is performed by \"transferFrom()\" where receiver can be second address or a third party address\r\n    mapping(address => mapping(address => uint256)) public allowance;\r\n\r\n    enum State {Running, Stopped, Inactive}\r\n\r\n    event Transfer(address indexed from, address indexed to, uint256 value);\r\n    event Approval(\r\n        address indexed owner,\r\n        address indexed spender,\r\n        uint256 value\r\n    );\r\n\r\n    constructor(string memory _name, string memory _symbol, uint256 _tickets, uint256 _primaryPrice, address _creator) public {\r\n        name = _name;\r\n        symbol = _symbol;\r\n        totalSupply = _tickets * (10**decimals);\r\n        primaryPrice = _primaryPrice;\r\n        creator = _creator; // identify contract deployer as creator\r\n        balanceOf[creator] = totalSupply; // give all initial token supply to creator\r\n    }\r\n\r\n    // helper function that performs token exchange between accounts\r\n    function _transfer(\r\n        address _from,\r\n        address _to,\r\n        uint256 _value\r\n    ) internal returns (bool success) {\r\n        balanceOf[_from] -= _value;\r\n        //balanceOf[_from] = balanceOf[_from].sub(_value);\r\n        balanceOf[_to] += _value;\r\n        //balanceOf[_to] = balanceOf[_to].add(_value);\r\n        emit Transfer(_from, _to, _value);\r\n        return true;\r\n    }\r\n\r\n    // Transfers _value amount of tokens from msg.sender to address _to, and MUST fire the Transfer event.\r\n    // The function SHOULD throw if the message caller's account balance does not have enough tokens to spend.\r\n    function transfer(address _to, uint256 _value)\r\n        public\r\n        returns (bool)\r\n    {\r\n        require(balanceOf[msg.sender] >= _value && _value > 0);\r\n        require(_to != address(0), \"bad address\");\r\n        _transfer(msg.sender, _to, _value);\r\n        return true;\r\n    }\r\n\r\n    // msg.sender approves an amount of their tokens that can be transferred by second account\r\n    // to third account to be specified in \"transferFrom()\"\r\n    // second and third accounts can be the same address\r\n    // e.g. msg.sender approves an exchange to transfer some of its tokens to a buyer\r\n    function approve(address _spender, uint256 _value)\r\n        public\r\n        returns (bool success)\r\n    {\r\n        require(_spender != address(0), \"bad address\");\r\n        allowance[msg.sender][_spender] += _value;\r\n        emit Approval(msg.sender, _spender, _value);\r\n        return true;\r\n    }\r\n    \r\n    function contractBalance() public view returns (uint) {\r\n        return address(this).balance;\r\n    }\r\n\r\n    // transfers tokens from one account \"_from\" to second account \"_to\" by a third account (\"msg.sender\")\r\n    // second and third accounts can be the same address\r\n    // third account must be approved by first account i.e. first account's tokens that will be transferred\r\n    // allowance amount defined by \"allowance[_from][msg.sender]\" must be established\r\n    function transferFrom(\r\n        address _from,\r\n        address _to,\r\n        uint256 _value\r\n    ) public returns (bool success) {\r\n        // checks that the third account has adequant allowance level\r\n        require(allowance[_from][msg.sender] >= _value && _value > 0);\r\n        // checks that the first account has adequant token amount\r\n        require(balanceOf[_from] >= _value && _value > 0);\r\n        // checks that the second account is a real address\r\n        require(_to != address(0), \"bad address\");\r\n        // adjusts allowance level of third account\r\n        allowance[_from][msg.sender] -= _value;\r\n        //allowance[_from][msg.sender] = allowance[_from][msg.sender].sub(_value);\r\n        // performs the transfer from first to second account\r\n        _transfer(_from, _to, _value);\r\n        return true;\r\n    }\r\n    \r\n    function primaryTransfer(uint _qty) public payable returns (uint amountToRefund) {\r\n        // checks that amount sent can pay for amount of tickets to be purchased\r\n        require(msg.value >= _qty * primaryPrice);\r\n        // checks that creator has enough tickets to satisfy amount of tickets to be purchased\r\n        require(balanceOf[creator] >= _qty);\r\n        \r\n        balanceOf[creator] -= _qty;\r\n        //balanceOf[creator] = balanceOf[creator].sub(_qty);\r\n        balanceOf[msg.sender] += _qty;\r\n        //balanceOf[_to] = balanceOf[_to].add(_value);\r\n        emit Transfer(creator, msg.sender, _qty);\r\n\r\n        // returns excess value sent;\r\n        amountToRefund = msg.value - (primaryPrice * _qty);\r\n        msg.sender.transfer(amountToRefund);\r\n        refunded = amountToRefund;\r\n        \r\n        return amountToRefund;\r\n    }\r\n}\r\n",
  "sourcePath": "C:\\Programming Code\\Consensys Bootcamp\\final-project\\blockchain-developer-bootcamp-final-project\\src\\contracts\\EventTicketingFactory.sol",
  "compiler": {
    "name": "solc",
    "version": "0.5.16+commit.9c3226ce.Emscripten.clang"
  },
  "schemaVersion": "3.0.23",
  "updatedAt": "2021-11-26T17:01:50.041Z",
  "devdoc": {
    "author": "The name of the author",
    "details": "Explain to a developer any extra details",
    "methods": {}
  },
  "userdoc": {
    "methods": {},
    "notice": "Explain to an end user what this does"
  }
}